:020000040800F2
:1000000000000120751F00083D1B0008431B00086D
:10001000491B00084F1B0008551B0008000000008A
:100020000000000000000000000000005B1B000852
:10003000691B000800000000771B0008351C000841
:10004000C51F0008C51F0008C51F0008C51F000800
:10005000C51F0008C51F0008C51F0008C51F0008F0
:10006000C51F0008C51F0008C51F0008C51F0008E0
:10007000C51F0008C51F0008C51F0008C51F0008D0
:10008000C51F0008C51F0008091500080000000072
:10009000000000000000000000000000C51F000874
:1000A000D9170008ED120008FD170008C51F000849
:1000B000491700086D17000891170008C51F0008B0
:1000C000C51F0008C51F0008C51F0008C51F000880
:1000D000C51F00080D1F0008C51F00080000000014
:1000E000C51F0008C51F0008C51F0008000000004C
:1000F000000000000000000000000000C51F000814
:1001000000000000C51F0008B5170008C51F000843
:1001100000000000000000000000000000000000DF
:10012000C51F0008C51F0008C51F0008C51F00081F
:10013000C51F0008000000000000000000000000D3
:10014000000000000000000000000000C51F0008C3
:10015000C51F0008C51F0008C51F0008411F000873
:10016000C51F0008C51F00080000000000000000B7
:10017000000000000000000000000000000000007F
:1001800000000000C51F0008000000000000000083
:04019000C51F00087F
:1001980010B5054C237833B9044B13B10448AFF3B9
:1001A80000800123237010BD000000200000000023
:1001B8001020000808B5034B1BB103490348AFF3EF
:1001C800008008BD00000000040000201020000886
:1001D80070B54FF0FF0C4CF4E06C1CEA11541DBFD5
:1001E8001CEA135594EA0C0F95EA0C0F00F0DEF8A0
:1001F8002C4481EA030621EA4C5123EA4C5350EA85
:10020800013518BF52EA033541F4801143F48013D5
:1002180038D0A0FB02CE4FF00005E1FB02E506F066
:100228000042E0FB03E54FF00006E1FB03569CF0BB
:10023800000F18BF4EF0010EA4F1FF04B6F5007FC1
:1002480064F5407404D25FEA4E0E6D4146EB060633
:1002580042EAC62141EA55514FEAC52040EA5E50BC
:100268004FEACE2EB4F1FD0C88BFBCF5E06F1ED866
:10027800BEF1004F08BF5FEA500E50F1000041EB9D
:10028800045170BD06F0004646EA010140EA02004A
:1002980081EA0301B4EB5C04C2BFD4EB0C0541EA6C
:1002A800045170BD41F480114FF0000E013C00F381
:1002B800AB8014F1360FDEBF002001F0004170BDA5
:1002C800C4F10004203C35DA0C341BDC04F11404BE
:1002D800C4F1200500FA05F320FA04F001FA05F24A
:1002E80040EA020001F0004221F0004110EBD37017
:1002F80021FA04F642EB06015EEA430E08BF20EA43
:10030800D37070BDC4F10C04C4F1200500FA04F3E5
:1003180020FA05F001FA04F240EA020001F0004177
:1003280010EBD37041F100015EEA430E08BF20EAEA
:10033800D37070BDC4F1200500FA05F24EEA020E32
:1003480020FA04F301FA05F243EA020321FA04F061
:1003580001F0004121FA04F220EA020000EBD37018
:100368005EEA430E08BF20EAD37070BD94F0000F18
:100378000FD101F00046400041EB010111F4801F4C
:1003880008BF013CF7D041EA060195F0000F18BFFD
:10039800704703F00046520043EB030313F4801F39
:1003A80008BF013DF7D043EA0603704794EA0C0FF3
:1003B8000CEA135518BF95EA0C0F0CD050EA410609
:1003C80018BF52EA4306D1D181EA030101F0004186
:1003D8004FF0000070BD50EA410606BF10461946AE
:1003E80052EA430619D094EA0C0F02D150EA0136BA
:1003F80013D195EA0C0F05D152EA03361CBF1046FB
:1004080019460AD181EA030101F0004141F0FE4199
:1004180041F470014FF0000070BD41F0FE4141F41D
:10042800780170BD81F0004102E000BF83F0004315
:1004380030B54FEA41044FEA430594EA050F08BF77
:1004480090EA020F1FBF54EA000C55EA020C7FEA3B
:10045800645C7FEA655C00F0E2804FEA5454D4EBB8
:100468005555B8BF6D420CDD2C4480EA020281EA82
:10047800030382EA000083EA010180EA020281EABA
:100488000303362D88BF30BD11F0004F4FEA01310C
:100498004FF4801C4CEA113102D0404261EB41011B
:1004A80013F0004F4FEA03334CEA133302D05242A1
:1004B80063EB430394EA050F00F0A780A4F101045D
:1004C800D5F1200E0DDB02FA0EFC22FA05F2801897
:1004D80041F1000103FA0EF2801843FA05F359417D
:1004E8000EE0A5F120050EF1200E012A03FA0EFCFC
:1004F80028BF4CF0020C43FA05F3C01851EBE37126
:1005080001F0004507D54FF0000EDCF1000C7EEB42
:1005180000006EEB0101B1F5801F1BD3B1F5001F80
:100528000CD349085FEA30004FEA3C0C04F101049F
:100538004FEA445212F5800F80F09A80BCF1004FC8
:1005480008BF5FEA500C50F1000041EB045141EA4A
:10055800050130BD5FEA4C0C404141EB0101013C13
:1005680028BFB1F5801FE9D291F0000F04BF014602
:100578000020B1FA81F308BF2033A3F10B03B3F1D4
:1005880020020CDA0C3208DD02F1140CC2F10C0264
:1005980001FA0CF021FA02F10CE002F11402D8BFC2
:1005A800C2F1200C01FA02F120FA0CFCDCBF41EA8E
:1005B8000C019040E41AA2BF01EB0451294330BD5D
:1005C8006FEA04041F3C1CDA0C340EDC04F114043A
:1005D800C4F1200220FA04F001FA02F340EA030011
:1005E80021FA04F345EA030130BDC4F10C04C4F157
:1005F800200220FA02F001FA04F340EA0300294637
:1006080030BD21FA04F0294630BD94F0000F83F480
:10061800801306BF81F480110134013D4EE77FEA63
:10062800645C18BF7FEA655C29D094EA050F08BFAF
:1006380090EA020F05D054EA000C04BF1946104690
:1006480030BD91EA030F1EBF0021002030BD5FEAD4
:10065800545C05D14000494128BF41F0004130BDFC
:1006680014F580043CBF01F5801130BD01F0004550
:1006780045F0FE4141F470014FF0000030BD7FEAC3
:10068800645C1ABF194610467FEA655C1CBF0B46BE
:10069800024650EA013406BF52EA033591EA030FD5
:1006A80041F4002130BD00BF90F0000F04BF0021CD
:1006B800704730B54FF4806404F132044FF0000500
:1006C8004FF0000150E700BF90F0000F04BF002179
:1006D800704730B54FF4806404F1320410F00045DF
:1006E80048BF40424FF000013EE700BF42004FEADA
:1006F800E2014FEA31014FEA02701FBF12F07F4357
:1007080093F07F4F81F06051704732F07F4208BF0D
:10071800704793F07F4F04BF41F40021704730B514
:100728004FF4607401F0004521F000411CE700BF60
:1007380050EA010208BF704730B54FF000050AE0E3
:1007480050EA010208BF704730B511F0004502D5E4
:10075800404261EB41014FF4806404F132045FEAE6
:10076800915C3FF4D8AE4FF003025FEADC0C18BF8F
:1007780003325FEADC0C18BF033202EBDC02C2F181
:10078800200300FA03FC20FA02F001FA03FE40EA13
:100798000E0021FA02F11444BDE600BF4FEA4102FF
:1007A800B2F1E04324BFB3F5001CDCF1FE5C0DD9C7
:1007B80001F0004C4FEAC0024CEA5070B2F1004F11
:1007C80040EB830008BF20F00100704711F0804F14
:1007D80021D113F13872BCBF01F00040704741F4D9
:1007E80080114FEA5252C2F11802C2F1200C10FADD
:1007F8000CF320FA02F018BF40F001004FEAC123C1
:100808004FEAD32303FA0CFC40EA0C0023FA02F364
:100818004FEA4303CCE77FEA625307D150EA01333A
:100828001EBF4FF0FE4040F44000704701F000400A
:1008380040F0FE4040F40000704700BF7BB972B939
:100848000029BEBF00204FF0004106E008BF002885
:100858001CBF6FF000414FF0FF3000F0BFB9ADF1A1
:10086800080C6DE904CE002909DB002B1ADB00F027
:100878004DF8DDF804E0DDE9022304B0704740429A
:1008880061EB4101002B1BDB00F040F8DDF804E0D0
:10089800DDE9022304B0404261EB4101524263EBBF
:1008A80043037047524263EB430300F02FF8DDF82F
:1008B80004E0DDE9022304B0404261EB41017047E6
:1008C800524263EB430300F021F8DDF804E0DDE970
:1008D800022304B0524263EB4303704753B94AB949
:1008E800002908BF00281CBF4FF0FF314FF0FF3030
:1008F80000F074B9ADF1080C6DE904CE00F006F80B
:10090800DDF804E0DDE9022304B070472DE9F04783
:10091800089D04468E46002B4DD18A42944669D9DB
:10092800B2FA82F252B101FA02F3C2F1200120FABE
:1009380001F10CFA02FC41EA030E94404FEA1C480C
:10094800210CBEFBF8F61FFA8CF708FB16E341EA08
:10095800034306FB07F199420AD91CEB030306F18E
:10096800FF3080F01F81994240F21C81023E6344AF
:100978005B1AA4B2B3FBF8F008FB103344EA034453
:1009880000FB07F7A7420AD91CEB040400F1FF3368
:1009980080F00A81A74240F207816444023840EAA5
:1009A8000640E41B00261DB1D4400023C5E90043DE
:1009B8003146BDE8F0878B4209D9002D00F0EF8061
:1009C8000026C5E9000130463146BDE8F087B3FA94
:1009D80083F6002E4AD18B4202D3824200F2F9807C
:1009E800841A61EB030301209E46002DE0D0C5E97F
:1009F800004EDDE702B9FFDEB2FA82F2002A40F0CB
:100A08009280A1EB0C014FEA1C471FFA8CFE0126CD
:100A1800200CB1FBF7F307FB131140EA01410EFB71
:100A280003F0884208D91CEB010103F1FF3802D218
:100A3800884200F2CB804346091AA4B2B1FBF7F012
:100A480007FB101144EA01440EFB00FEA64508D935
:100A58001CEB040400F1FF3102D2A64500F2BB8072
:100A68000846A4EB0E0440EA03409CE7C6F12007C1
:100A7800B34022FA07FC4CEA030C20FA07F401FA07
:100A880006F31C43F9404FEA1C4900FA06F3B1FB90
:100A9800F9F8200C1FFA8CFE09FB181140EA0141F5
:100AA80008FB0EF0884202FA06F20BD91CEB010192
:100AB80008F1FF3A80F08880884240F28580A8F1EA
:100AC80002086144091AA4B2B1FBF9F009FB10113C
:100AD80044EA014100FB0EFE8E4508D91CEB0101DA
:100AE80000F1FF346CD28E456AD90238614440EA7D
:100AF8000840A0FB0294A1EB0E01A142C846A646FD
:100B080056D353D05DB1B3EB080261EB0E0101FA85
:100B180007F722FA06F3F1401F43C5E900710026E2
:100B28003146BDE8F087C2F12003D8400CFA02FC38
:100B380021FA03F3914001434FEA1C471FFA8CFE48
:100B4800B3FBF7F007FB10360B0C43EA064300FB38
:100B58000EF69E4204FA02F408D91CEB030300F1D6
:100B6800FF382FD29E422DD9023863449B1B89B28D
:100B7800B3FBF7F607FB163341EA034106FB0EF316
:100B88008B4208D91CEB010106F1FF3816D28B42C3
:100B980014D9023E6144C91A46EA004638E72E468F
:100BA800284605E70646E3E61846F8E64B45A9D287
:100BB800B9EB020864EB0C0E0138A3E74646EAE7F6
:100BC800204694E74046D1E7D0467BE7023B6144A4
:100BD80032E7304609E76444023842E7704700BF0D
:100BE80080B400AF0F4B1B680E4A43F0010313603B
:100BF80000BF0C4B1B685B0803F00103002BF8D007
:100C0800084B9B68074A23F003039360054B1B6856
:100C1800044A43F48023136000BFBD465DF8047B9B
:100C2800704700BF0038024080B483B000AF03466D
:100C38000A46FB711346BB71FB79072B6AD801A2E0
:100C480052F823F06D0C0008830C0008990C00087A
:100C5800AF0C0008C50C0008DB0C0008F10C0008FC
:100C6800070D00082F4B1B6BBA79012101FA02F21C
:100C780011462C4A0B4313634DE02A4B5B6BBA7940
:100C8800012101FA02F21146264A0B43536342E05E
:100C9800244B1B6CBA79012101FA02F21146214A50
:100CA8000B43136437E01F4B5B6CBA79012101FADF
:100CB80002F211461B4A0B4353642CE0194B1B6D7F
:100CC800BA79012101FA02F21146164A0B4313655B
:100CD80021E0144B5B6DBA79012101FA02F2114649
:100CE800104A0B43536516E00E4B1B6EBA7901216F
:100CF80001FA02F211460B4A0B4313660BE0094B4B
:100D08005B6EBA79012101FA02F21146054A0B43DA
:100D1800536600E000BF00BF0C37BD465DF8047B9A
:100D2800704700BF0038024080B483B000AF03466C
:100D3800FB710B46BB7113467B71FB79022B36D0D6
:100D4800022B4CDC002B02D0012B18D047E0274B9C
:100D58001B68BA795200032101FA02F2D243114604
:100D6800224A0B401360214B1B687979BA795200EB
:100D780001FA02F211461D4A0B43136030E01C4B86
:100D88001B68BA795200032101FA02F2D2431146D4
:100D9800174A0B401360164B1B687979BA795200D1
:100DA80001FA02F21146124A0B43136018E0114B84
:100DB8001B68BA795200032101FA02F2D2431146A4
:100DC8000C4A0B4013600B4B1B687979BA795200B7
:100DD80001FA02F21146074A0B43136000E000BF14
:100DE80000BF0C37BD465DF8047B70470000024029
:100DF800000402400008024080B483B000AF0346FC
:100E0800FB710B46BB7113467B71FB79022B32D009
:100E1800022B46DC002B02D0012B16D041E0244BDC
:100E28005B68BA79012101FA02F2D2431146204ADD
:100E38000B4053601E4B5B687979BA7901FA02F26C
:100E480011461B4A0B4353602CE01A4B5B68BA7976
:100E5800012101FA02F2D2431146164A0B405360AF
:100E6800144B5B687979BA7901FA02F21146114A92
:100E78000B43536016E0104B5B68BA79012101FA05
:100E880002F2D24311460C4A0B4053600A4B5B688E
:100E98007979BA7901FA02F21146074A0B4353608D
:100EA80000E000BF00BF0C37BD465DF8047B70470B
:100EB80000000240000402400008024080B483B0F1
:100EC80000AF0346FB710B46BB7113467B71FB7980
:100ED800022B32D0022B46DC002B02D0012B16D07D
:100EE80041E0244B5B69BA79012101FA02F2D2434D
:100EF8001146204A0B4053611E4B5B697979BA79D8
:100F080001FA02F211461B4A0B4353612CE01A4BBB
:100F18005B69BA79012101FA02F2D2431146164AF5
:100F28000B405361144B5B697979BA7901FA02F283
:100F38001146114A0B43536116E0104B5B69BA79AD
:100F4800012101FA02F2D24311460C4A0B405361C7
:100F58000A4B5B697979BA7901FA02F21146074AB4
:100F68000B43536100E000BF00BF0C37BD465DF87E
:100F7800047B704700000240000402400008024061
:100F880080B485B000AF0346FB710B46BB711346B6
:100F98007B71BB79DB08FB73BB7903F00703BB7379
:100FA800FB79022B4ED0022B70DC002B02D0012BD8
:100FB80024D06BE0384AFB7B083352F82320BB7BF4
:100FC8009B000F2101FA03F3DB4318463249FB7BF0
:100FD8000240083341F823202F4AFB7B083352F89C
:100FE80023207979BB7B9B0001FA03F318462A4931
:100FF800FB7B0243083341F8232047E0274AFB7B69
:10100800083352F82320BB7B9B000F2101FA03F31E
:10101800DB4318462149FB7B0240083341F8232073
:101028001E4AFB7B083352F823207979BB7B9B004F
:1010380001FA03F318461949FB7B0243083341F8C8
:10104800232023E0164AFB7B083352F82320BB7B7E
:101058009B000F2101FA03F3DB4318461049FB7B81
:101068000240083341F823200D4AFB7B083352F82D
:1010780023207979BB7B9B0001FA03F318460849C2
:10108800FB7B0243083341F8232000BF00BF14371D
:10109800BD465DF8047B7047000002400004024032
:1010A8000008024080B500AF012200210020FFF7B0
:1010B8003BFE002200210020FFF79EFE01220121B5
:1010C8000020FFF731FE002201210020FFF794FEE7
:1010D800012202210020FFF727FE00220221002022
:1010E800FFF78AFE00BF80BD80B584B000AF03461D
:1010F800FB710023FB731CE0FA79FB7B42FA03F3D4
:10110800DBB203F00103DBB21A4601210020FFF72E
:10111800D5FE002200210020FFF7D0FE012000F0BC
:1011280057FD012200210020FFF7C8FEFB7B013399
:10113800FB73FB7B072BDFD900BF00BF1037BD4611
:1011480080BD80B500AF002202210020FFF7B6FE67
:10115800012000F03DFD012202210020FFF7AEFE34
:1011680000BF80BD80B400AF124B0F229A62114BB2
:101178001B68104A43F0040313600E4B5B690D4A69
:1011880023F0010353610B4B1B680A4A23F0080341
:101198001360084B1B68074A43F001031360054BB3
:1011A8001B68044A43F08003136000BFBD465DF826
:1011B800047B70470000014090B583B000AF04463F
:1011C800084611461A462346FB710346BB710B4677
:1011D800BB8013467B80FFF7C5FFFB79032B6BD8D9
:1011E80001A252F823F000BF0112000831120008D2
:1011F8006112000891120008394B9B69384A43F084
:1012080008039361364B9B69BA7912011146344A37
:101218000B439361324B1B6A314A43F0010313625B
:101228002F4A7B88536347E02D4B9B692C4A43F434
:10123800006393612A4B9B69BA7912031146284AC5
:101248000B439361264B1B6A254A43F01003136234
:10125800234A7B8893632FE0214BDB69204A43F0C4
:101268000803D3611E4BDB69BA79120111461C4A87
:101278000B43D3611A4B1B6A194A43F480731362F8
:10128800174A7B88D36317E0154BDB69144A43F48C
:101298000063D361124BDB69BA7912031146104A15
:1012A8000B43D3610E4B1B6A0D4A43F48053136200
:1012B8000B4A7B88136400BFBB885A1E084BDA624E
:1012C800074B5B6C064A43F400435364044B1B68AA
:1012D800034A43F00103136000BF0C37BD4690BDBD
:1012E8000000014080B500AF054B1B689847054BCF
:1012F8001B69044A23F00103136100BF80BD00BFCE
:101308001C0000200000014080B586B000AF0346F5
:10131800FB801B4B7B614FF000033B614FF00003E8
:10132800FB60184BBB60FB8807EE903AB8EE677A13
:10133800D7ED057A67EE276A97ED027AC6EE877AC7
:10134800C7ED037AF868FFF7D1F90BA3D3E90023B7
:10135800FEF73EFF02460B4610461946FFF71EFAF7
:1013680003463B613B6907EE903AB0EE670A1837CF
:10137800BD4680BDAFF300804E36D964934D1E4004
:1013880000404E4500F07F4580B483B000AF03466F
:101398000A46FB711346BB71124B5B68114A23F076
:1013A800407353600F4B5B68FA79120611460D4A79
:1013B8000B4353600B4B1B6D0A4A23F00303136561
:1013C800084B1A6DBB79074913430B65054B9B689E
:1013D800044A43F00103936000BF0C37BD465DF833
:1013E800047B70470020014080B582B000AF0346FF
:1013F800FB71FB790321184600F01AF8034BDB6BED
:101408009BB218460837BD4680BD00BF002001408A
:1014180080B400AF054B9B68044A43F48003936093
:1014280000BFBD465DF8047B704700BF0020014047
:1014380080B483B000AF03460A46FB711346BB7104
:101448000F4B996BBA7913469B0013441F2202FA7B
:1014580003F3DB430A4A0B409363094B996BF87912
:10146800BA7913469B00134400FA03F3044A0B436A
:10147800936300BF0C37BD465DF8047B704700BF1F
:101488000020014080B483B000AF0346FB71FB79B4
:10149800002B02D0012B07D00DE00A4B5B68094AEC
:1014A80043F02003536006E0064B5B68054A43F0AF
:1014B8008003536000BF00BF0C37BD465DF8047B56
:1014C800704700BF0020014080B483B000AF78604F
:1014D8000B46FB70FB78002B02D0012B04D007E0F1
:1014E800064A7B68136003E0044A7B68536000BFC8
:1014F80000BF0C37BD465DF8047B70472000002014
:1015080080B500AF114B1B685B0803F00103002B8B
:1015180009D00F4B1B6898470C4B1B680B4A23F0EC
:10152800020313600FE0094B1B689B0803F00103DB
:10153800002B08D0064B5B689847044B1B68034A8E
:1015480023F00403136000BF80BD00BF00200140EA
:101558002000002080B500AFFFF7A4FD022208217B
:101568000020FFF7E1FB022209210020FFF7DCFB46
:10157800012208210020FFF703FD01220921002094
:10158800FFF7FEFC00BF80BD80B500AFFFF7D9FDB7
:10159800E420FFF7A9FDFFF7D4FD4FF233334FF6F0
:1015A800DC7206210020FFF707FE4FF233334FF6B7
:1015B800DC7206210120FFF7FFFD00BF80BD80B56A
:1015C80000AFFFF7BEFD1B20FFF78EFDFFF7B9FD4B
:1015D8004FF233334FF6DC7206210020FFF7ECFDA3
:1015E8004FF233334FF6DC7206210120FFF7E4FD9A
:1015F80000BF80BD80B500AFFFF7A3FDA020FFF7B7
:1016080073FDFFF79EFD4FF233334FF6DC72062170
:101618000020FFF7D1FD4FF233334FF6DC7206217D
:101628000120FFF7C9FD00BF80BD80B500AFFFF7FF
:1016380088FD4420FFF758FDFFF783FD4FF2333351
:101648004FF6DC7206210020FFF7B6FD4FF2333368
:101658004FF6DC7206210120FFF7AEFD00BF80BD0A
:1016680080B500AFFFF76DFD0020FFF73DFDFFF7E8
:1016780068FD00BF80BD80B500AF43F233334FF63D
:10168800DC7206210020FFF797FD43F233334FF653
:10169800DC7206210120FFF78FFD00BF80BD80B5F9
:1016A80000AF46F266634FF6DC7206210020FFF7B2
:1016B80083FD46F266634FF6DC7206210120FFF7D0
:1016C8007BFD00BF80BD80B500AF49F699134FF68A
:1016D800DC7206210020FFF76FFD49F699134FF6DB
:1016E800DC7206210120FFF767FD00BF80BD80B5D1
:1016F80000AF4CF6CC434FF6DC7206210020FFF712
:101708005BFD4CF6CC434FF6DC7206210120FFF757
:1017180053FD00BF80BD80B500AF4FF233334FF6A5
:10172800DC7206210020FFF747FD4FF233334FF6F6
:10173800DC7206210120FFF73FFD00BF80BD0000DD
:1017480080B500AF064B1B6898474FF080431B6974
:101758004FF0804223F00103136100BF80BD00BF3A
:101768002800002080B500AF054B1B689847054B43
:101778001B69044A23F00103136100BF80BD00BF49
:101788002C0000200004004080B500AF054B1B680A
:101798009847054B1B69044A23F00103136100BFF6
:1017A80080BD00BF300000200008004080B500AFB9
:1017B800054B1B689847054B1B69044A23F0010336
:1017C800136100BF80BD00BF34000020000C004042
:1017D80080B500AF054B1B689847054B1B69044A49
:1017E80023F00103136100BF80BD00BF3800002053
:1017F8000040014080B500AF054B1B689847054B7A
:101808001B69044A23F00103136100BF80BD00BFB8
:101818003C0000200048014080B500AFFFF7E0F928
:1018280000210020FFF700FA01210020FFF7FCF952
:1018380004210320FFF7F8F900210320FFF7F4F94A
:1018480005210320FFF7F0F908210320FFF7ECF941
:10185800FFF780FE022207210120FFF765FA072221
:1018680007210120FFF78CFB00F0F0F9252000F09C
:1018780039F9012000F06AFA0121214800F092FAB2
:1018880000210020FFF780FD122000F02BF9032231
:1018980005210020FFF748FA01211A48FFF714FE36
:1018A8000120FFF7EFFD02220B210020FFF73CFA91
:1018B80002220C210020FFF737FA08220B21002012
:1018C800FFF75EFB08220C210020FFF759FB00F010
:1018D800EDF9472000F006F9012000F017FA00F0B2
:1018E80055FA03461A46084B1A700520FFF77CFD87
:1018F80003461A46054B1A80FFF78AFDEFE700BF3B
:1019080019190008A91A0008400000204200002008
:1019180080B582B000AF614B1B78FB71FB79313B1E
:10192800492B00F2B58001A252F823F07B1A000877
:10193800811A0008871A00088D1A0008931A0008EF
:10194800991A0008991A0008991A0008991A0008A3
:10195800991A0008991A0008991A0008991A000893
:10196800991A0008991A0008991A0008991A000883
:10197800991A0008991A0008991A0008991A000873
:10198800991A0008991A0008991A0008991A000863
:10199800991A0008991A0008991A0008991A000853
:1019A800991A0008991A0008991A0008991A000843
:1019B800991A0008991A0008991A0008991A000833
:1019C800991A0008991A0008991A0008991A000823
:1019D800991A0008991A0008991A0008991A000813
:1019E800991A0008991A0008991A00086F1A00082D
:1019F800991A0008991A0008691A0008991A000823
:101A0800991A0008991A0008991A0008991A0008E2
:101A1800991A0008991A0008991A0008991A0008D2
:101A2800991A0008991A0008991A0008991A0008C2
:101A3800991A0008631A0008991A0008991A0008E8
:101A4800991A00085D1A0008991A0008991A0008DE
:101A5800751A0008FFF798FD1BE0FFF7B0FD18E0C6
:101A6800FFF7C8FD15E0FFF7E0FD12E0FFF7F8FD0E
:101A78000FE0FFF700FE0CE0FFF711FE09E0FFF7AB
:101A880022FE06E0FFF733FE03E0FFF744FE00E026
:101A980000BF00BF0837BD4680BD00BF4000002022
:101AA800B0B582B000AF00237B600D4B1B88184691
:101AB800FFF72AFCF0EE407AFCEEE77A17EE903A50
:101AC8007B60074B1B889BB200221C4615462046AC
:101AD800294600F093F900BF0837BD46B0BD00BFE6
:101AE8004200002090B484B000AF0346FB7101238C
:101AF800FB73FB79542B13D80D4AFB795B09D8B2D9
:101B0800034652F82330FA7902F01F02012101FA44
:101B180002F21446064A0146234342F8213001E006
:101B28000223FB73FB7B18461037BD4690BC7047F9
:101B380000E100E080B400AFFEE780B400AFFEE74C
:101B480080B400AFFEE780B400AFFEE780B400AF1A
:101B5800FEE780B400AF00BFBD465DF8047B704768
:101B680080B400AF00BFBD465DF8047B704780B409
:101B780000AF00BFBD465DF8047B704780B400AF7E
:101B8800064BD3F88830054A43F47003C2F888300E
:101B980000BFBD465DF8047B704700BF00ED00E064
:101BA80080B483B000AF7860084A7B685360074B05
:101BB80000229A60054B1B68044A43F00103136036
:101BC80000BF0C37BD465DF8047B704710E000E0AD
:101BD80080B582B000AF78607B684FF4FA6202FB90
:101BE80003F31846FFF7DCFF00BF00F009F80346CF
:101BF800002BFAD000BF00BF0837BD4680BD0000EB
:101C080080B483B000AF0023FB71074B1B681B0C2B
:101C1800DBB203F00103FB71FB7918460C37BD46B4
:101C28005DF8047B704700BF10E000E080B500AFAE
:101C3800054B1B68002B04D0034B1B689847FFF724
:101C4800DFFF00BF80BD00BF4400002080B400AFAC
:101C5800154AD3686FF3CF33D360134B9B68124A8E
:101C680043F4D06343F0030393600F4AD3686FF3E0
:101C78000C33D3600C4AD3686FF38A23D3600A4AC3
:101C8800D36843F00803D360074AD36843F00403DA
:101C9800D360054AD36843F40053D36000BFBD4600
:101CA8005DF8047B704700BF0010014080B400AFAE
:101CB800154AD3686FF3CF33D360134B9B68124A2E
:101CC80043F4D06343F0030393600F4AD3686FF380
:101CD8000C33D3600C4AD3686FF38A23D3600A4A63
:101CE800D36843F00803D360074AD36843F004037A
:101CF800D360054AD36843F40053D36000BFBD46A0
:101D08005DF8047B704700BF0014014080B483B0C5
:101D180000AF0346FB71FB79002B02D0012B06D0E4
:101D28000BE0094AD3686FF3C713D36005E0064A8E
:101D3800D36843F08003D36000BF00BF0C37BD46B3
:101D48005DF8047B704700BF0014014080B483B085
:101D580000AF0346FB71FB79002B02D0012B06D0A4
:101D68000BE0094AD3686FF34513D36005E0064AD0
:101D7800D36843F02003D36000BF00BF0C37BD46D3
:101D88005DF8047B704700BF0010014080B400AFCD
:101D9800034B5B68DBB21846BD465DF8047B7047B1
:101DA8000010014080B483B000AF78600B46FB7030
:101DB800FB78002B02D0012B04D007E0064A7B6891
:101DC800136003E0044A7B68536000BF00BF0C3710
:101DD800BD465DF8047B70474800002080B483B09E
:101DE80000AF0346FB71044AFB79137000BF0C3740
:101DF800BD465DF8047B7047500000202DE9B04FC8
:101E080086B000AFC7E902014FF001024FF00003AE
:101E1800C7E90423D7E90223134302D13020FFF78F
:101E2800DDFFD7E90223002B41DA3020FFF7D6FF88
:101E3800D7E902230021D2F1000861EB0309C7E9C1
:101E4800028934E0D7E9048942464B464FF0000046
:101E58004FF00001990041EA9271900002460B464A
:101E680012EB080443EB090523193B6045EB050316
:101E78007B60D7E90045A046A946D7E902014FF0A3
:101E88000A024FF00003FEF7D9FC18EB020A49EBEF
:101E9800030BC7E904ABD7E902014FF00A024FF080
:101EA8000003FEF7CBFC02460B46C7E90223D7E93D
:101EB80002231343C6D119E0D7E904014FF00A02FF
:101EC8004FF00003FEF70AFDD3B23033DBB21846F9
:101ED800FFF784FFD7E904014FF00A024FF000032F
:101EE800FEF7FCFC02460B46C7E90423D7E90423A6
:101EF800511E0B43E0D100BF00BF1837BD46BDE8F7
:101F0800B08F000080B582B000AF0023FB71084B92
:101F18001B685B0903F00103012B05D1054B5B68C6
:101F28009847034B5B68FB7100BF0837BD4680BD0F
:101F3800001001404800002080B483B000AF0023A7
:101F4800FB71084B1B68DB0903F00103012B03D16C
:101F5800054B1A78034B5A6000BF0C37BD465DF835
:101F6800047B70470014014050000020DFF834D093
:101F78000D480E490E4A002302E0D458C4500433D9
:101F8800C4188C42F9D30B4A0B4C002301E01360B0
:101F98000432A242FBD3FFF7F1FD00F011F8FFF77E
:101FA8003BFC7047000001200000002000000020DA
:101FB800382000080000002054000020FEE7000040
:101FC80070B50D4D0D4C641BA4100026A64209D116
:101FD8000B4D0C4C00F018F8641BA4100026A64208
:101FE80005D170BD55F8043B98470136EEE755F822
:101FF800043B98470136F2E73020000830200008FB
:102008003020000834200008F8B500BFF8BC08BC30
:102018009E467047F8B500BFF8BC08BC9E4670479E
:08202800ECE8FF7F010000005D
:04203000BD010008E6
:042034009901000806
:0400000508001F755B
:00000001FF
